:0400000002001132B7
:03000B000200727E
:08006A00E4F508F50902000E9F
:03000E0002008667
:10007200C0E0C0D074012508F508E43509F509D0BF
:10008200D0D0E032438E80758901758A39758C2C07
:10009200D28CD2A9D2AFAEB06306408EB0E4F508DE
:0F00A200F509C3E50894E8E509940350E980F3F4
:06004000E478FFF6D8FD94
:10001E007900E94400601B7A009000B5780175A064
:10002E0000E493F2A308B8000205A0D9F4DAF27541
:02003E00A0FF21
:100046007800E84400600A790175A000E4F309D855
:10005600FC7800E84400600C7900900001E4F0A30D
:04006600D8FCD9FAEF
:0D0011007581091200B1E582600302000E46
:0400B1007582002232
:00000001FF
