:040000000200313297
:01000B0032C2
:0100130032BA
:01001B0032B2
:0300230002014A8D
:03002B000201329D
:10008A00750E30750F31751032751133751234755E
:10009A001335751436751537751638751739751879
:1000AA0061751962751A63751B64751C65751D6621
:0300BA0002002E13
:03002E000200BD10
:1000BD00759850750800750A0175D6FF75D7DC75F2
:1000CD008E14438E01D2AC759DFF75BD0075BC8835
:1000DD0043B82075A8A0D2AF00000000E50A70FC5F
:1000ED00E50BF4F5A075824112015E758244120193
:1000FD005E75824312015E75823D12015EE50BF560
:10010D000DC4540F240EF9878212015EAE0D5306F5
:10011D000FEE240EF9878212015E75820A12015EBE
:10012D00750A0180B7C0E0E5BC75BC0085BD0B85C7
:10013D00BE0C750A0075BC88D2ACD0E032109802A6
:10014D008006859980750900109902800375080055
:0D015D0032AF82E50870FC7508018F992211
:06006000E478FFF6D8FD74
:10003E007900E94400601B7A0090016E780175A08A
:10004E0000E493F2A308B8000205A0D9F4DAF27521
:02005E00A0FF01
:100066007800E84400600A790175A000E4F309D835
:10007600FC7800E84400600C7900900001E4F0A3ED
:04008600D8FCD9FACF
:0D00310075811D12016AE582600302002E38
:04016A007582002278
:00000001FF
