:040000000200313297
:01000B0032C2
:0100130032BA
:01001B0032B2
:03002300020120B7
:03002B00020108C7
:03008A0002002E43
:03002E0002008D40
:10008D00759850750800750A0175D6FF75D7DC7522
:10009D008E14438E01D2AC759DFF75BD0075BC8865
:1000AD0043B82075A8A0D2AF00000000E50A70FC8F
:1000BD00E50BF4F5A07582411201347582441201ED
:1000CD003475824312013475823D120134E50BD42F
:1000DD00F50DE50DC4540F2430F582120134AF0D2A
:1000ED00740F5F2430F582120134850B82120134B6
:1000FD0075820A120134750A0180B1C0E0E5BC7544
:10010D00BC0085BD0B85BE0C750A0075BC88D2ACD4
:10011D00D0E03210980280068599807509001099FB
:10012D0002800375080032AF82E50870FC75080186
:03013D008F992275
:06006000E478FFF6D8FD74
:10003E007900E94400601B7A00900144780175A0B4
:10004E0000E493F2A308B8000205A0D9F4DAF27521
:02005E00A0FF01
:100066007800E84400600A790175A000E4F309D835
:10007600FC7800E84400600C7900900001E4F0A3ED
:04008600D8FCD9FACF
:0D00310075810D120140E582600302002E72
:0401400075820022A2
:00000001FF
