:040000000200313297
:01000B0032C2
:0100130032BA
:01001B0032B2
:030023000201A136
:03002B0002018946
:10008A00750E30750F31751032751133751234755E
:10009A001335751436751537751638751739751879
:1000AA0061751962751A63751B64751C65751D6621
:0300BA0002002E13
:03002E000200BD10
:1000BD00759850750800750A0175D6FF75D7DC75F2
:1000CD008E14438E01D2AC759DFF75BD0075BC8835
:1000DD0043B82075A8A0D2AF00000000E50A70FC5F
:1000ED00E50BF50DC4035407FF8F1E751F00C37478
:1000FD0010950DE433FC7D007A017B00C3EA951E5B
:10010D00EB6480851FF063F08095F05013EC2CFEAE
:10011D00ED33FFEE4204EF42050ABA00DF0B80DC3F
:10012D00C374F5950DE433FFE45401A2E0CF13CF72
:10013D0013CFFEEC4207ED4206EFF4F5A0758241B8
:10014D001201B57582441201B57582431201B57560
:10015D00823D1201B5E50DC4540F240EF9878212AC
:10016D0001B5AE0D53060FEE240EF987821201B5BF
:10017D0075820A1201B5750A010200E9C0E0E5BCFD
:10018D0075BC0085BD0B85BE0C750A0075BC88D28B
:10019D00ACD0E03210980280068599807509001068
:1001AD009902800375080032AF82E50870FC75086E
:0401BD00018F9922F3
:06006000E478FFF6D8FD74
:10003E007900E94400601B7A009001C5780175A033
:10004E0000E493F2A308B8000205A0D9F4DAF27521
:02005E00A0FF01
:100066007800E84400600A790175A000E4F309D835
:10007600FC7800E84400600C7900900001E4F0A3ED
:04008600D8FCD9FACF
:0D00310075811F1201C1E582600302002EDF
:0401C1007582002221
:00000001FF
