:03000000020006F5
:06005F00750840020003D9
:0300030002006593
:10006500E50842B012008E12008E12008E12008E2C
:1000750012008EE508F452B012008E12008E1200A6
:100085008E12008E12008E80D77E007F007CFF7D51
:1000950000EC24FFFAED34FFFB8A048B05EA4B7074
:1000A500F00EBE00010FC3EE94FFEF648094804014
:1000B500DC7EFF7F00EE24FFFCEF34FFFD8C068D18
:1000C50007EC4D70F07EFFFFEE24FFFCEF34FFFDE3
:1000D5008C068D07EC4D70F07EFFFFEE24FFFCEFE4
:1000E50034FFFD8C068D07EC4D70F07EFFFFEE248E
:0F00F500FFFCEF34FFFD8C068D07EC4D70F02201
:06003500E478FFF6D8FD9F
:100013007900E94400601B7A00900108780175A01B
:1000230000E493F2A308B8000205A0D9F4DAF2754C
:02003300A0FF2C
:10003B007800E84400600A790175A000E4F309D860
:10004B00FC7800E84400600C7900900001E4F0A318
:04005B00D8FCD9FAFA
:0D000600758108120104E582600302000309
:0401040075820022DE
:00000001FF
