:03000000020008F3
:06006100750840020003D7
:0500030012006780FE01
:10006700E50842B012009C12009C12009C12009CF2
:1000770012009C12009CE508F452B012009C12007A
:100087009C12009C12009C12009C12009C12009C67
:1000970012009C80CB7A007B00C3EA94FFEB64805C
:1000A700948050147CFF7D001CBCFF011DEC4D703B
:1000B700F70ABA00E40B80E17AFF7B001ABAFF0166
:1000C7001BEA4B70F77AFFFB1ABAFF011BEA4B706A
:1000D700F77AFFFB1ABAFF011BEA4B70F77AFFFBAF
:0A00E7001ABAFF011BEA4B70F72262
:06003700E478FFF6D8FD9D
:100015007900E94400601B7A009000F5780075A02E
:1000250000E493F2A308B8000205A0D9F4DAF2754A
:02003500A0FF2A
:10003D007800E84400600A790075A000E4F309D85F
:10004D00FC7800E84400600C7900900000E4F0A317
:04005D00D8FCD9FAF8
:0D0008007581081200F1E58260030200031B
:0400F10075820022F2
:00000001FF
