:04000000020029329F
:01000B0032C2
:0100130032BA
:01001B0032B2
:0300230002008553
:0300820002002653
:0300260002009D38
:10008500C2AC109802800685998075090010990206
:100095008003750800D2AC3275985075080075D686
:1000A500FF75D7DC758E14438E01D2ACD2AF758245
:1000B5000512011EAD82AE83AFF0C007C006C005B4
:1000C5001200E8D005D006D0078D828E838FF012FE
:1000D500018780DAAF82E50870FC8FE0750801853D
:1000E500E09922AD82AE83AFF08D828E838FF012C0
:1000F50003F2FC60188C820DBD00010EC007C0061E
:10010500C0051200D9D005D006D00780DC227509BC
:1001150001E50970FC85998222AF828F057E008DED
:10012500828E83A3C0071202CFAD82AE83D0078D26
:100135000A8E0B750C00A90AAA0BAB0C7800C3E854
:100145009F502BC007C003C002C001C0001201139D
:10015500AE82D000D001D002D003D00789828A8335
:100165008BF0EE120278A3A982AA830880D0898237
:100175008A838BF0E4120278850A82850B83850CCD
:10018500F022AD82AE83ED4E700122E4F515F51631
:10019500900001E0F9A3E0FA751701751800E94A26
:1001A50060258D008E04C3E998EA9C501A89158A4A
:1001B50016740229FBE43AFC8B178C188B828C830E
:1001C500E0F9A3E0FA80D7ED24FEFDEE34FFFE74DE
:1001D500022DFCE43EFF8C828F83E9F0EAA3F085D3
:1001E5001782851883EDF0EEA3F08D828E83E0F8FB
:1001F500A3E0FBE9B50033EAB5032F88828B83A31F
:10020500A3E0FAA3E0FB8C828F83EAF0EBA3F08DE9
:10021500828E83E0FAA3E0FB8A828B83E0FAA3E077
:10022500FB8D828E83EAF0EBA3F0E515451660425F
:10023500851582851683E0FAA3E0FBEAB50533EB65
:10024500B5062F8D828E83E0FDA3E0FE85158285A0
:100255001683EDF0EEA3F074022515FDE43516FEC8
:100265008C828F83E0FCA3E0FF8D828E83ECF0EF20
:03027500A3F022D1
:06005800E478FFF6D8FD7C
:100036007900E94400601B7A00900414780375A0E7
:1000460004E493F2A308B8000205A0D9F4DAF27525
:02005600A0FF09
:1002780020F71130F6138883A88220F509F6A883A1
:100288007583002280FEF280F5F02290000174034D
:10029800F07400A3F0900412E493FE740193FF1E1F
:1002A800BEFF011FEE2403FEEF3400FF900003EEB3
:1002B800F0EFA3F0900001E0FEA3E0FF8E828F83B1
:1002C800A3A3E4F0A3F022AE82AF83900001E0F58F
:1002D800F0A3E045F0700BC007C006120293D006E9
:1002E800D007EE4F600E74022EFCE43FFDC3EC9E77
:1002F800ED9F50049000002274022EF50DE43FF5A6
:100308000EC3E50D9404E50E94005006750D0475B2
:100318000E00900001E0FCA3E0FD7A017B00EC4DAB
:1003280070030203EE8C828D83E0F8A3E0F988065F
:1003380089078C138D14EEC39513F50FEF9514F5FB
:1003480010C3E50F950DE510950E50030203D77401
:1003580004250DFEE4350EFFC3E50F9EE5109F4012
:100368004EE50D2513FEE50E3514FF8E118F12850F
:100378001182851283E8F0E9A3F074022511F8E4EC
:100388003512F98C828D83A3A3E0FEA3E0FF888257
:100398008983EEF0EFA3F08A828B83E511F0E512F2
:1003A800A3F08C828D83E511F0E512A3F080148C04
:1003B800828D83A3A3E0FEA3E0FF8A828B83EEF005
:1003C800EFA3F074022CFEE43DFF8E828F8322742B
:1003D800022CFEE43DFF8E028F038E828F83E0FCA9
:0A03E800A3E0FD02032690000022AE
:10005E007800E84400600A790175A000E4F309D83D
:10006E00FC7802E84404600C7905900001E4F0A3EA
:04007E00D8FCD9FAD7
:020412000004E4
:0D00290075811812040EE5826003020026A6
:1003F20020F71430F6148883A88220F507E6A88334
:1004020075830022E280F7E49322E02275820022C3
:00000001FF
