:04000000020029329F
:01000B0032C2
:0100130032BA
:01001B0032B2
:0300230002008553
:0300820002002653
:0300260002009A3B
:10008500C2AC10980280038599801099028003758F
:100095000800D2AC3275985075080075D6FF75D733
:1000A500E7758E14438E01D2ACD2AF90011575F071
:1000B500801200CA80FEAF82E50870FC8FE07508EB
:1000C5000185E09922AD82AE83AFF08D828E838F5C
:1000D500F01200F5FC60188C820DBD00010EC00702
:1000E500C006C0051200BBD005D006D00780DC22B3
:0E01150048656C6C6F20776F726C64210A0075
:06005800E478FFF6D8FD7C
:100036007900E94400601B7A00900123780175A0DD
:1000460000E493F2A308B8000205A0D9F4DAF27529
:02005600A0FF09
:10005E007800E84400600A790175A000E4F309D83D
:10006E00FC7800E84400600C7900900001E4F0A3F5
:04007E00D8FCD9FAD7
:0D002900758108120111E5826003020026B6
:1000F50020F71430F6148883A88220F507E6A88334
:1001050075830022E280F7E49322E02275820022C3
:00000001FF
