:0400000002001332B5
:03000B000200935D
:08006C00E4F508F50902000E9D
:05000E001200B080FEAD
:10007400AA82AB83E4F508F509C3E5089AE5099B70
:1000840040F722758901758CFC758A18D28C22C0C0
:10009400E0C0D075D00074012508F508E43509F5F1
:1000A40009758CFC758A18D0D0D0E032D2AFD2A9B1
:0E00B40012008763B0409003E812007480F5DC
:06004200E478FFF6D8FD92
:100020007900E94400601B7A009000C6780075A052
:1000300000E493F2A308B8000205A0D9F4DAF2753F
:02004000A0FF1F
:100048007800E84400600A790075A000E4F309D854
:10005800FC7800E84400600C7900900000E4F0A30C
:04006800D8FCD9FAED
:0D0013007581091200C2E582600302000E33
:0400C2007582002221
:00000001FF
