:0400000002001132B7
:03000B000200E20E
:06006A0075080002000E03
:03000E000200F2FB
:10007000AE82AF83C374EE9E74029F501375080066
:100080007406250850FAEE2406FEEF34FFFF80E4E4
:100090008E048F05C374F49E74019F50117508007F
:1000A0007406250850FAEC2406FCED34FFFDC374F9
:1000B000FA9CE49D50117508007406250850FAEC6E
:1000C0002406FCED34FFFD750800AE087F00C3EE8A
:1000D0009CEF9D40F522758901758CF4758A9BD241
:1000E0008C22C0E0E50804F508758CF4758A9BD075
:1000F000E032D2AFD2A91200D6AEB06306408EB0C5
:10010000900013120070AEB06306408EB0900001F4
:0501100012007080E404
:06004000E478FFF6D8FD94
:10001E007900E94400601B7A00900119780175A0FF
:10002E0000E493F2A308B8000205A0D9F4DAF27541
:02003E00A0FF21
:100046007800E84400600A790175A000E4F309D855
:10005600FC7800E84400600C7900900001E4F0A30D
:04006600D8FCD9FAEF
:0D001100758108120115E582600302000EE2
:0401150075820022CD
:00000001FF
